:020000040800F2
:10000000000002201DC5000809C3000817C300082E
:100010001DC3000823C3000829C300080000000016
:100020000000000000000000000000002FC30008D6
:100030003DC30008000000004BC3000859C300087E
:100040006DC500086DC500086DC500086DC50008C8
:100050006DC500086DC500086DC500086DC50008B8
:100060006DC500086DC500086DC500086DC50008A8
:100070006DC500086DC500086DC500086DC5000898
:100080006DC500086DC500086DC500086DC5000888
:100090006DC500086DC500086DC500086DC5000878
:1000A0006DC500086DC500086DC500086DC5000868
:1000B0006DC500086DC500086DC500086DC5000858
:1000C0006DC500086DC500086DC500086DC5000848
:1000D0006DC500086DC500086DC500086DC5000838
:1000E0006DC500086DC500086DC500086DC5000828
:1000F0006DC500086DC500086DC500086DC5000818
:100100006DC500086DC500086DC500086DC5000807
:100110006DC500086DC500086DC500086DC50008F7
:100120006DC500086DC500086DC500086DC50008E7
:100130006DC500086DC500086DC500086DC50008D7
:100140006DC500086DC500086DC500086DC50008C7
:100150006DC500086DC500086DC500086DC50008B7
:100160006DC500086DC500086DC500086DC50008A7
:100170006DC500086DC500086DC5000800000000D1
:080180006DC500086DC5000803
:1001900010B5054C237833B9044B13B10448AFF3C1
:1001A00000800123237010BDFC0900200000000026
:1001B000B49A030808B5034B1BB103490348AFF3D6
:1001C000008008BD00000000000A0020B49A030867
:1001D0002DE9F24F0025AA4682B00746AB46D0462D
:1001E000D14628E000201CE050F80A4064B3B8680B
:1001F00041688068404401EB09060090A1690868E5
:1002000004F054FE30600121B180E068C168F180E3
:10021000826832814068F060A1698A683261009822
:10022000E0B970616D1C0BF1010B09F1180908F1BF
:1002300008080AF1040A002F14BF388800208345FB
:1002400002D278680028CFD1A8B218B1B968029854
:100250004A680260A8B203B0BDE8F08F00990020A0
:100260000860009A2068506000281CBF4088002861
:10027000B8D00098012101600098D2E730B4D3686B
:100280005569DC68EB685C4384608D886C43C460AE
:100290000969C36841601944016092691468A1004A
:1002A00007D49468D1684368641A1919916040684A
:1002B000D06030BC7047DFF8140801684908490075
:1002C00001600120DFF80818886088680028FCD1E8
:1002D000DFF800280A600868DFF8FC17884200D0C1
:1002E000FEE7ADA07047DFF8E40701684908490060
:1002F00001600120DFF8D817886088680028FCD1E9
:10030000DFF8D0270A600868DFF8CC17884200D0F1
:10031000FEE70FF2D07210687047DFF8B00701688F
:100320004908490001600120DFF8A4178860886847
:100330000028FCD1DFF89C270A600868DFF89817CE
:10034000884200D0FEE70FF2A07210687047DFF815
:100350007C0701684908490001600120DFF8701737
:10036000886088680028FCD1DFF868270A60086880
:10037000DFF86417884200D0FEE70FF27072106851
:10038000704720B10168DFF85427914200D0002067
:10039000DFF838170A68520852000A600121DFF8B6
:1003A0003027916091680029FCD1DFF8283713606D
:1003B0001168DFF82427914200D0FEE77047DFF88C
:1003C0001C170160704720B10168DFF810279142C7
:1003D00000D00020DFF8F4160A68520852000A60C4
:1003E0000121DFF8EC26916091680029FCD1DFF84B
:1003F000E43613601168DFF8E026914200D0FEE792
:1004000000281CBF103000F083BB0FF2F4600068BE
:10041000704700281CBF103000F07FBB70472DE9EB
:10042000F04F5FEA000981B00C4605D0D9F8000012
:10043000DFF8A816884201D04FF00009DFF88C568B
:10044000DFF88C6628684008400028600121B16010
:10045000B0680028FCD1DFF87C76DFF87C86376056
:100460003068404500D0FEE7B9F1000F18BF002CFE
:1004700034D00020E066D9F8502052B100E00246A6
:10048000E16E491CE166D068824218BF0028F6D1AF
:1004900011B9182211211DE0B9F8480008B1D9F8A6
:1004A0004C0004F13401FFF793FE208610B91822A6
:1004B00012210FE0B9F848000228A6BFD9F84C0075
:1004C0000C30002004F13801FFF782FE608648B945
:1004D0001822132109F1100000F01FFB002001B0C9
:1004E000BDE8F08FD9F80400206709F1300292E8E6
:1004F000095C04F13C0109F1180981E8095C99E8FB
:100500000E5404F1540080E80E542868400840005E
:1005100028600123B360B0680028FCD137603168DF
:10052000414500D0FEE71CA0206129684908490028
:100530002960B360B0680028FCD13760316841455C
:1005400000D0FEE70FF29C500268626129684908FA
:1005500049002960B360B0680028FCD13760316879
:10056000414500D0FEE70FF28050026862622968C0
:10057000490849002960B360B0680028FCD13760A1
:100580003168414500D0FEE70FF260500268A26278
:10059000012001B0BDE8F08F0000000070B5049D9F
:1005A00004460598DBB22D0445EA036545EA0025BB
:1005B0000FF250500668DFF8140501684908490039
:1005C00001600120DFF80815886088680028FCD1E8
:1005D000DFF800350B600868DFF8FC14884200D0B3
:1005E000FEE71CB90FF22050006870BDDFF8EC1474
:1005F0001160226000F08AFA10B90FF2F4400DE0A9
:10060000DFF8DC148D4228BF0FF2E84006D20FF26B
:10061000E84000F097FA20B90FF2E04006680021A8
:100620002160304670BD30B10168DFF8B0249142DE
:1006300008BF024600D00022DFF890140B685B0868
:100640005B000B600121DFF888349960996800290C
:10065000FCD1DFF880C4C3F800C01968DFF8783433
:10066000994200D0FEE702B1002070472DE9F04F1B
:1006700081B00A4620B10168DFF86034994200D0A9
:100680000020DFF848140B685B085B000B60012159
:10069000DFF83C34996099680029FCD1DFF83444D4
:1006A0001C601968DFF83034994200D0FEE700285A
:1006B00035D00AB9112212E01369916A39B9118C47
:1006C000D58B546A6943614318BF132207D173B9AC
:1006D0001189D488D3686143594308D0122210216C
:1006E000103000F01AFA002001B0BDE8F08FB2E837
:1006F000F81000F1180100F1300E81E8F81092E8CE
:100700000A0F8EE80A0F0321026DC1603AB100E0C2
:100710000A46D16890608A4218BF0029F8D101B01A
:10072000BDE8F08F2DE9F44F82B00A4620B1016890
:10073000DFF8A833994200D00020DFF890130B684F
:100740005B085B000B600121DFF8843399609968D6
:100750000029FCD1DFF87C431C601968DFF878338E
:10076000994200D0FEE7002800F01381B0F848104D
:1007700001B1C16C0023C3820024037B848203F097
:100780000303032B02D030221121FFE0002A1EBFF9
:1007900000290B88002B00F0F780B2F804B000911C
:1007A000A046A1460026171D824614E0F8680028DE
:1007B00000F0E9803888002852D0584528BF834689
:1007C0002246391F2846FFF759FD08F1010818375E
:1007D000103609F104090098018888454AD240681A
:1007E00000281CBF50F80940002C43D000988168B5
:1007F0000A68951900F0C780A06941687B88BA88AB
:10080000B86803FB02FC00FB0CFC61452DD3D4F857
:100810000CC0DCF80CE09E4501BFDCF808309342C8
:10082000DCF80420824220D1A069006804F016FCA4
:10083000E168CA686169CB685A43904215D3A069E0
:10084000006804F033FB57F8041C20F07E4021F0D0
:100850007E418842AAD0192212210AF1100096E0A6
:10086000212212210AF1100091E0182212210AF12E
:1008700010008CE002990029554675D0B5F8480063
:1008800002287BDBE86C0C301CBF0288002A75D084
:100890004FF00008C14600260F1D009013E0F868D5
:1008A000002859D03888002851D0584528BF8346A1
:1008B0002246391F2846FFF7E1FC08F101081837E6
:1008C000103609F1040900980188884549D240682A
:1008D00000281CBF50F80940002C42D000988168C5
:1008E0000A68951938D0A06941687B88BA88B868C9
:1008F00003FB02FC00FB0CFC61453ED3D4F80CC0AA
:10090000DCF80CE09E4501BFDCF808309342DCF8CF
:100910000420824231D1A069006804F09FFBE168A5
:10092000CA686169CB685A43904226D3A0690068BF
:1009300004F0BCFA57F8041C20F07E4021F07E4100
:100940008842ACD0192213210AF110001FE02122A5
:1009500013210AF110001AE0172213210AF11000E6
:1009600015E05546A5F814B0B5F84800002814BFA6
:10097000D5F84CA04FF0000A0FE05546182213217D
:1009800005F1100003E0504617221221103000F04C
:10099000C4F8002003B0BDE8F08F0228A6BFE86CC1
:1009A00000F10C0B4FF0000BE88AA98AB0EB010FA5
:1009B00080F087804FF000085446C146C24618E0D8
:1009C0008268C3687168D21A114481607268C2601B
:1009D0007068B168084470603168884202D3F0687A
:1009E0004042084470600AF1010A09F1100908F157
:1009F0000408002C14BF20880020824512D26068B1
:100A000080B150F8080068B1A16880690A6801687F
:100A100002EB09068A00D3D5B2687168806830F0AD
:100A200035F9D5E7A246284600F036F94FF0000820
:100A30005C46C146C34617E07168B26811447160F4
:100A40003268914202D3F168494211447160826870
:100A5000C368D21A114481607268C2600BF1010B45
:100A600009F1100908F10408002C14BF20880020A7
:100A700083451DD26068D8B150F80800C0B1A168A4
:100A800080690A68016802EB09068A00D4D581688A
:100A9000B268706830F0FAF87068B1680844706045
:100AA0003168884202D3F068404208447060D5E75C
:100AB000E88AA98A401CE882A34680B28842FFF4F3
:100AC00079AFE88A03B0BDE8F08F0000002000E0B5
:100AD00000300240C2A507F4CDB5E8B50001C0A1C1
:100AE00001000301040100000101000001030000F6
:100AF0003010000001100000038404840210000084
:100B000010100000000000001010000001207047CD
:100B10000146002208680A60704703785FEA036CA8
:100B200004D141EA02210160012070470020704792
:100B300010B5044621698847E068A04208BF00203C
:100B400010BD000000B581B060B10178032909D162
:100B50005FF004028DA130F00DFF401E8041C00FF8
:100B600001B000BD002001B000BD000042F21172D2
:100B7000811A012981BFC91E0D290F39092900F2E7
:100B80006B80801A33D0401E33D0801E33D0401E7D
:100B900034D0401E34D0401E34D0401E34D0401ECD
:100BA00034D0401E34D0401E34D0401E34D0401EBD
:100BB00034D0401E34D0401E34D0401E34D0401EAD
:100BC00034D0801E34D0401E34D0401E34D0401E5D
:100BD00034D0401E34D0401E34D0401E34D0401E8D
:100BE00034D0401E34D0401E34D01CA070471CA00E
:100BF00070471CA0704700BF31A0704732A07047FB
:100C000019A0704719A0704731A0704718A070470D
:100C100031A0704732A0704736A0704738A07047A7
:100C200014A0704738A0704739A070473BA07047A8
:100C30003FA0704740A0704741A0704743A0704755
:100C400044A0704745A070470BA0704749A070476B
:100C50004AA070474BA0704700A0704700000000FA
:100C600041444400424E0000475255004C524E0051
:100C70004E4C0000534D00005041440042F21171AF
:100C8000401A012881BFC01E0D280F38092801D83D
:100C9000012070470020704730B5044681B0206DB8
:100CA00058B16065656D296928468847E868A8429B
:100CB00008BF002000286065F4D101B030BD0000FD
:100CC000434F4E563244000044454E534500000009
:100CD0004C53544D000000004E4F524D0000000098
:100CE0004F5054494D495A45445F434F4E56324444
:100CF000000000005452414E53504F534500000035
:100D0000504F4F4C0000000053504C49540000001D
:100D100054494D455F44454C4159000054494D45A7
:100D20005F44495354524942555445440000000021
:100D3000434F4E434154000047454D4D00000000D5
:100D4000555053414D504C4500000000454C545700
:100D50004953450047454E4552494300494E535477
:100D6000414E43454E4F524D414C495A4154494FD3
:100D70004E000000534C49434500000054494C4587
:100D8000000000005245445543450000038404849C
:100D90002DE9F04F98B02598002800F0CB82BDF9DE
:100DA000C040DDF8B4A02B9D249F2C9E049007FB2F
:100DB0000A6A2A98BDF9C060CDF814A00419641E0F
:100DC0002698009194FBF6F6BDF9BC401792464375
:100DD0001696B7EE000A2A9E22980693444315946D
:100DE0007E43BDF9C0407C4314944643BDF9C040E6
:100DF0002A980B96241A139404462698269E444358
:100E000012942A9C44431194BDF9C000BDF9BC4022
:100E100014FB00F00A90239C2998B4FBF0F010908A
:100E2000229C2998B4FBF0F00F90239C2298B4FBED
:100E3000F0F0229C0E9074430D942A9C2D1B0C956F
:100E40002C9F24992C982E9A7F42D8BF0027091AEC
:100E500091423DBF24982C9E861B1646059A2299E6
:100E60001798BA184A4300EB8202219800B90098FB
:100E70000190F61B29980C9D012804BF0A980128AF
:100E800040F0A980249C26980D9BA41B4C43801BFA
:100E900041432798401B00FB03FC1198069B074425
:100EA0002298474303EB87077043019E009B9E42B5
:100EB0000B9B02EB8309239A0CBFDFEDAF0AF0EE28
:100EC000400A002A00F02282B0462E461346CDF892
:100ED00008C01D46DDF800E0009B3A468246CDF88A
:100EE0000490C4462AF003079CED001ADDF8048044
:100EF000002E21EE201A61DD3046002F4FF0000950
:100F000040F31F80D2ED004A98ED005AD2ED013A2D
:100F100098ED014AD2ED022A98ED023AD2ED031A79
:100F200098ED032A04EE851A03EE841A103209F1B3
:100F3000040902EE831AB94501EE821A08F110087D
:100F4000E0DBD14580F2348009F10109D2ED002ABD
:100F5000D8ED001A121DD14502EEA11A08F10408BD
:100F600026DA09F1010992ED003A98ED002A121DE6
:100F7000D14503EE021A08F1040819DA09F1010952
:100F8000D2ED002AD8ED001A121DD14502EEA11AA9
:100F900008F104080CDA09F1010992ED002A98ED34
:100FA000003A121DD14502EE031A08F10408CBDB0A
:100FB000401E08EB840802EB81029ED102988EED60
:100FC000001A6D1E02EB80020EF1040E0CF1040CEF
:100FD0008AD100939AE12998884204BF0A9801288F
:100FE00040F0CC800E98069B009C02902498811BB8
:100FF000229801FB00FA26982699A0EB060C279868
:10100000401B414312983F1803EB8700019BA3420A
:101010000B9B02EB830E0CBFDFED570AF0EE400A8C
:10102000229B00240EEB83029645039280F06E8192
:10103000009B029A002A00F09780019A009502EB2B
:10104000840703EB8402DDF808B00891CDF81CE0BA
:101050001546009A97ED001A0799002A21EE201AEA
:1010600040F3728026F0030EBEF1000F4FF000092E
:1010700040F32980DDF88880D0ED001A91ED002A38
:1010800001EB880101EE821AD0ED011A91ED002AE0
:1010900001EB880101EE821AD0ED021A91ED002ACF
:1010A00001EB880101EE821A09F10409D0ED031A5F
:1010B00091ED002A1030F14501EE821A01EB880112
:1010C000DADBCDF88880B14580F23880DDF888E041
:1010D00009F10109D0ED001A91ED002A001DB1457A
:1010E00001EE821A01EB8E0126DA09F1010990ED79
:1010F000002AD1ED001A001DB14502EE211A01EBC4
:101100008E0119DA09F10109D0ED001A91ED002ADA
:10111000001DB14501EE821A01EB8E010CDA09F1D6
:10112000010990ED002AD1ED001A001DB14502EE33
:10113000211A01EB8E01CBDBCDF888E0521E01EBCA
:101140008A0100EB8C008DD1089985ED001A641C92
:101150002D1D3F1DBBF1010B00EB81007FF479AF2A
:10116000009D0899DDF81CE0039A0EF1040E9645E7
:10117000BFF42FAF5DE700BF00000000BDF9BC1059
:10118000DDF850900846CB1B97FBF0F400FB0430D1
:1011900090FBF1FA01FB1A0ABDF9C0302A98139CA2
:1011A00090FBF3F003FB0040761890FBF3FB761EF8
:1011B0007F1803FB1B0BA6EB0A06A5EB0B057F1E96
:1011C00096FBF1F0279E229C5D196D1E00FB119984
:1011D00097FBF1F195FBF3FC109D0F9B0995A6EB96
:1011E0000C06269D2D1A05FB03F8269D5D4306FB84
:1011F00005FE169D069E4D1904FB09F95D43159CDD
:1012000006EB8501019D009EE41AB5422A9D249EAD
:101210005D4406FB05AA229D0AFB05F50CBFDFED28
:101220009E0AF0EE400A02EB8507299A0025002A63
:101230006CD00292099A002A62D0019A02EB8506CC
:10124000009ACDF80CC002EB850A099ACDF820E08F
:10125000CDF81C70DDF80CE096ED001A079FBEF18A
:10126000000F21EE201A3BDD002832DD4FEA000C92
:1012700007EB830B5F4527D2D1ED002AD7ED001A8B
:10128000091D3F1D5F4502EEA11A1DD291ED003AE6
:1012900097ED002A091D3F1D5F4503EE021A13D288
:1012A000D1ED002AD7ED001A091D3F1D5F4502EE62
:1012B000A11A09D291ED002A97ED003A091D3F1DB0
:1012C0005F4502EE031AD7D3BCF1010C07EB84078C
:1012D000CED1BEF1010E07EB890701EB8801C3D126
:1012E000089F6D1C361D8AED001A521E01EB870106
:1012F0000AF1040AAED1DDF80CC0DDF820E0079F4A
:10130000029A521E07EB8307029293D10098239909
:1013100000EB81022C98BDF8A010009241182C918E
:101320000598BDF8A010411804980591401E04903E
:101330007FF486AD18B0BDE8F08F70472DE9F04F0F
:1013400081B082462DED028B15460C9CE0080F46BD
:101350001A469FED510A52D029463B787D78BE78D7
:1013600097F803B092ED008A92ED017A17F804CF56
:1013700092ED026A92ED035A97F801E097F8028025
:1013800097F8039092ED044A92ED053A92ED062A01
:1013900092ED071A01EB830301EB850501EB86064D
:1013A000D3ED007AD5ED006A01EB8B0B07EE880ACE
:1013B00001EB8C0CD6ED005ADBED004ADCED003A77
:1013C00006EE870A01EB8E0E05EE860A01EB880811
:1013D00004EE850A01EB8909DEED002AD8ED001A3A
:1013E000D9ED000A03EE840A3F1D02EE830A203283
:1013F00001EE820A401E00EE810AAED10D4614F0C5
:1014000007003ED010F0030100F00D8017F8013BFB
:1014100092ED001A05EB8306121DD6ED000A491E57
:1014200000EE810AF2D1800800F02B8017F8013B12
:1014300017F8011B92ED001AD2ED010A05EB8303A8
:1014400005EB810193ED002AD1ED001A17F8011B7D
:1014500017F8013B02EE010A05EB810101EEA00A3B
:1014600005EB8303D2ED020A91ED002A92ED031AF7
:10147000D3ED001A103202EE200A401E01EE810A5E
:10148000D4D1DAED000A30EE800A8AED000ABDEC14
:10149000028B01B0BDE8F08F000000002DE9F0479D
:1014A0002DED028B8046DDF828C04FEA5C001E4619
:1014B00040005FEADC030C46154606EB800E9FED0C
:1014C000500A53D096ED008A96ED017A96ED026AA5
:1014D00096ED035A20786178A278E77896ED044A71
:1014E00096ED053A96ED062A96ED071A07F00F09D4
:1014F0003F0905EB870705EB890AD7ED001ADAEDFE
:10150000000A02F00F07120905EB820205EB8707BC
:10151000D2ED003AD7ED002A01F00F02090905EBE0
:10152000810105EB8207D1ED005AD7ED004A00F0AA
:101530000F01000905EB800005EB8102D0ED007A78
:10154000D2ED006A07EE880A06EE870A05EE860AE3
:1015500004EE850A03EE840A241D02EE830A203677
:1015600001EE820A5B1E00EE810AABD176452FD2D6
:1015700014F8010BD6ED001AD6ED010A00F00F01A8
:10158000000905EB800005EB810290ED002A92ED49
:10159000001A083602EE210A764501EE200A17D21B
:1015A00014F8010B96ED001A96ED012A00F00F01D8
:1015B000000905EB800005EB8102D0ED001AD2EDA9
:1015C000000A083601EE810A764500EE820ACFD382
:1015D0005FEACC7009D5217896ED001A090905EB70
:1015E0008100D0ED000A00EE810AD8ED001A31EE3C
:1015F000800A88ED000ABDEC028BBDE8F087000090
:1016000000000000F0B404460598049E042B04EB8F
:10161000800503D0082B3ED0F0BC7047AC4259D2B5
:1016200070082ED0C3070CD50F783F0952F8273029
:10163000236011F8017B07F00F0752F82730636031
:10164000083440081DD00B781B0952F8237027601E
:1016500011F8013B03F00F0352F82370676004F1A7
:1016600008030C78240952F824701F60401E11F8FA
:10167000014B04F00F0452F824705F6003F108047A
:10168000E1D1F007CAD511F8013B1B0952F823003C
:1016900044F8040BC2E7AC421CD2087852F8200090
:1016A0002060201DA8423FBF4C7852F8243040F8FB
:1016B000043BA8420ED28B7852F8233040F8043B0A
:1016C000A84207D2CC7852F82430091D041DAC4240
:1016D0000360E2D3F0BC70472DE9F04F0546A9B096
:1016E0006B69198800291ABF5868001D042000681A
:1016F000002814BF026800220129C6BF58681030B4
:1017000004200068002814BFD0F800A04FF0000AA1
:101710000229C6BF586800F11C0404242068002870
:1017200014BF0668002602290ADD5B6813F1180160
:1017300006D0198B012903DDD96909B1496800E098
:10174000002100B18068D7687B681B93DAF80C3001
:101750005C680494DC689B681493FB681A93BF6808
:1017600020976B6AADF840302F8D1F97AB6B1F68C9
:10177000B3F80480EB6A19932B6B1893F368D3F8D2
:1017800008E0CDF84CE05B681293AB691E93926958
:1017900093681D93B269D2F8089019B18A69936869
:1017A000179301E000221792DAF818108A68039262
:1017B000E96918B181698A68159205E011B18A68F2
:1017C000159201E0002315931599029120B900218B
:1017D00001222491239208E041698A682492806959
:1017E0004168006803F03AFC239018AA286A002890
:1017F00012BF2290DFF8281D229113991388481EEA
:101800005B1E19AA03FB0011169112981388411E42
:101810005B1E03FB01001C900022B6693168CB11EE
:101820004FEA615C491401F00F01002003F07F03CF
:101830000CF0030C0429834623FA0CF314BF082987
:10184000F268DAB169690D88042DA6BF49682831AC
:101850000421096800291FBF086800288169D1F8A0
:1018600008B0806941681B98019100905846B168A2
:10187000FFF7C8FEBBF1000F18BFD946BFB27F42C9
:10188000002C73D02246C8F10008049CDDF80CB08F
:10189000029ECDF89880CDF89C90119721922698C1
:1018A0001A99119A169B259011984042D8BF002092
:1018B000891A99423DBF1A9A1199511A19460A91EB
:1018C000099002941E98BDF84010189A089007914C
:1018D00012B213981299199B0F92069005911BB2A0
:1018E0001C9A149820990E930D9204900391119BC9
:1018F000259A1B9817990C930B9201900091279BA6
:101900001D9A59460020FFF743FA149810B3CDF8FA
:1019100000A0159D249FDDF88C80DDF8889082461C
:1019200000988169C1F808B02B4622460846C8478E
:101930003D44A81B4045A8BF3546BAF1010A0BEB50
:10194000840BEDD1DDF800A015952497CDF88C809F
:10195000CDF88890DAF81800C168816011981F9955
:10196000081811902198401E219098D129B0BDE807
:10197000F08F00002DE9F04F0446B9B06369198873
:1019800000291ABF5868001D04200068002814BFF1
:10199000026800220129C6BF586810300420006880
:1019A000002814BFD0F800904FF000090229C6BFEC
:1019B000586800F11C0704273868002814BF06681F
:1019C000002602290ADD5B6813F1180106D0198B85
:1019D000012903DDD96909B1496800E0002100B19E
:1019E0008068D7687B682393D9F80C506B68109394
:1019F000EB682293AB682193FB681B93BF682D971C
:101A0000636AADF84C30278D2097A36B1F88B3F81D
:101A100004809D68A3692C93E36A1F93236B1E9334
:101A2000F368D3F804E0CDF868E09B681993E36BA2
:101A30002B93636C2A93A36C1193236DD3F800A0AE
:101A40005B682993926993682893B269D2F808B0C9
:101A500019B18A6993681D9301E000221D92E16922
:101A600018B181698A681C9205E011B18A681C92DC
:101A700001E000231C931C99029120B9002101224E
:101A80001691159208E041698A681692806941684A
:101A9000006803F0E3FA15901EAA206A002812BF1E
:101AA0003090DFF87C1A3091616D19981388279176
:101AB0005B1E411E1FAA03FB010018901A99138890
:101AC000481E5B1E03FB00112691216C1B9A18987F
:101AD0001291121ABA18209912FA85F0B0FBF1F19E
:101AE000491C14910020B669316800250022CB11F1
:101AF0004FEA615C491401F00F0103F07F030CF021
:101B0000030C042923FA0CF314BF0829F268DAB194
:101B10006169B1F800C0BCF1040FA6BF4968283163
:101B20000421096800291FBF4868002881698D6861
:101B3000806941682398019100902846B168FFF7B9
:101B400061FD0DB1284600E058466369DDF840C0EC
:101B50001C88D9F818100026042CA6BF5B6828330F
:101B600004230DF1440E1B68002B14BF1D680025D3
:101B70007F42AC69EB68D4F808B09B68119C5C4369
:101B80000CFB04F437940FFA8AF2BEF90040DDF83A
:101B900084C036940DF1480E109C0CFB04F435946F
:101BA000C8F10008BEF9004034949146109CCDF86D
:101BB000C8805C433394229C002C00F02E81DDF819
:101BC00008A03890259114462F962E9624931797A7
:101BD000149800286ADD32981B99179A189B319047
:101BE00017984042D8BF0020891A99423DBF1B9ADE
:101BF0001799511A194609900A912C98BDF84C1062
:101C00001E9A1F9B0890079112B219981A99069074
:101C10000F9205911BB22498269A2D9904900E9349
:101C20000D9203911098179B319A239902900C936F
:101C30000B92019159461D98389B289A00900020DC
:101C4000FFF7A6F8249850B3CDF808A0109E1C9F6B
:101C5000DDF8C0808246A9693B46C1F808B032462B
:101C60000846C0471698029907441598791A814288
:101C7000A8694168C068A8BF029F0BEB860B00EB08
:101C80008102934502D3890049428B44BAF1010A8B
:101C9000E1D1DDF808A010961C97CDF8C080A869A6
:101CA000C168816009F101000FFA80F91498401EA3
:101CB00014906BD5339800FB09F0800040420BEB89
:101CC0000002A869C3689A423CBF476802EB8702DA
:101CD0009342594636D2349EB14533D0466803EB21
:101CE00086039A4280F02E8092ED000A8BED000A66
:101CF000C3684668121D03EB8607BA4222D2D2EDB2
:101D0000000ACBED010AC3684668121D03EB860783
:101D1000BA4217D292ED000A8BED020AC3684668F8
:101D2000121D03EB8607BA420CD2D2ED000ACBEDAE
:101D3000030AC3684668121D03EB8607BA420BF11B
:101D4000100BD1D32F9A129B9A18A2EB09022F9253
:101D5000119A379B4A440FFA82F901EB830BC16851
:101D6000426801EB82039B450B460FD341688A0012
:101D70005242934403EB81018B4524BF93448B452E
:101D800021BF93448B4593448B45EFD212988145F4
:101D900039D31199219A109B279EA9EB01000FFAC4
:101DA00080F92E98401C2E900121259808900791CB
:101DB00092B211982A99069280B2059089B2299818
:101DC000129A049180B2A1B2029003919BB22B9817
:101DD000129980B289B2009001912F982499121A19
:101DE000A86992B289B2B04725988168359801EB0D
:101DF000800225998A603698201A0028C3BF11985E
:101E0000241A24B2002417982099081817902299B0
:101E10002E988842FFF4DCAE2599A869C2688260DA
:101E2000C868886039B0BDE8F08F00002DE9F04F38
:101E300081B02DED028B88B04469208800281ABF3C
:101E40006168091D04210968002914BF0A6800227D
:101E50000228A6BF6168103104210968002914BF57
:101E60000F6800270228C6BF61681C310421096879
:101E7000002914BF0B68002302280BDD616811F1F3
:101E8000180007D0088B022804DBC86910B1D0F80D
:101E900004A001E04FF0000AD0684468F868456883
:101EA0008168C0689E69BF69D6F800E09269BF6822
:101EB000414300204FEAEE194FEA6E584FEA6E4E4A
:101EC0000EF00F0EBEF1040F14BFBEF1080FF06844
:101ED00009F07F0908F003085E69766829FA08F9B5
:101EE000D2F80880002907EB850200F0EA8007930A
:101EF000CDF814A006950192049107998A69059975
:101F0000D2F808B0019B00291ABF8A6992680022A2
:101F1000002840F0AB809F4280F0C7800390002AE9
:101F20000EBF9FED6B0A92ED000A121D042C204695
:101F3000C646DC46DFED660A5DD3A108CD071CD599
:101F40009CED004ADEED004A9CED013ADEED013ADF
:101F50009CED022ADEED022A9CED031ADEED031A47
:101F600044EE240A43EE230A42EE220A41EE210AFD
:101F70000EF1100E0CF1100C001F490800F03B8010
:101F8000DEED004ADEED013ADEED022ADEED031A57
:101F90009CED031A9CED022A9CED013A9CED004A4F
:101FA00044EE240A43EE230A42EE220A41EE210ABD
:101FB0000EF110050CF1100CD5ED008A9CED008A95
:101FC0009CED017AD5ED017A9CED026AD5ED026AAD
:101FD0009CED035AD5ED035A48EE280A47EE270A2E
:101FE000083846EE260A491E45EE250A05F1100E70
:101FF0000CF1100CC4D178B310F0030100F00C8088
:102000009CED001ADEED001A491E41EE210A0EF188
:10201000040E0CF1040CF3D180081DD09CED002AB5
:102020009EED001ADCED011ADEED012A42EE010AF6
:1020300041EEA20A9CED022A9EED021ADCED031A83
:10204000DEED032A42EE010A401E41EEA20A0EF125
:10205000100E0CF1100CE1D130EE200A87ED000AD1
:102060003F1D9F42B344FFF45AAF1DE09F421CD274
:102070009A4603901546002D14BF55F8040B002016
:102080000290B9F1040F039A00944346594602A8FE
:1020900002D1FFF703FA01E0FFF750F9029847F881
:1020A000040B5745B344E6D303980199069A01EB14
:1020B000820304990193491E08EB840804917FF47C
:1020C0001CAF08B0BDEC028B01B0BDE8F08F000082
:1020D000000000002DE9F04F044691B061690888C6
:1020E00000281ABF4868021D04220B461068198890
:1020F000002814BF0568002500291DBF5868002866
:10210000B0F800C04FF0000C0229A6BF586810308C
:1021100004200068002814BF016800210026BCF1DB
:10212000030FB24607D11068002826D0466824D095
:10213000D0F808A021E0BCF1020F0DD1106800B169
:1021400046681A88022AC6BF58681C3004200068F6
:1021500098B1D0F800A010E0BCF1010F0DD11A88A1
:10216000022AC6BF586800F11C0204221068002829
:1021700003D0066818BFD0F804A0C86889698B68C6
:102180004268C16892B289B206A80CF04BF8A969FE
:10219000E8688B684268C16892B289B204A80CF002
:1021A00041F8B169F0688B684268C16892B289B23F
:1021B00002A80CF037F8DAF81810DAF80C008B687F
:1021C0004268C16892B289B268460CF02BF894F963
:1021D000215094F920000599039A94ED070AD4ED53
:1021E000060A0B910E920D920023BDF810E0BDF887
:1021F00012800199BDF80270BDF800C0079CBDF8BF
:1022000008A0BDF81860BDF81AB0089102000CBF14
:1022100072464246012F0CBF99464FF00409BDF8A3
:102220000A10BCF1010F04D1012F04D0CBF100073B
:1022300002E0012F00D0002700280CBFF446C4465E
:102240003FB2B4450C9740F08B80002D0CBF099134
:10225000CDF824A0099F5F4540F0828000280CBF84
:10226000C446F446002D0CBF57460F46BC4577D1F7
:10227000089EDDF82CC01094ADF82230ADF8202077
:10228000109ABDF82230CDF82CC002EB8307099AD2
:102290000E9BDDF834C0ADF828E04FEA8804CDF895
:1022A0003C8000280CBFDDF83C80BDF828801FFA78
:1022B00088FBDDF82CE0BBF1000F9FED9A1A19D0D6
:1022C00000280CBF4FF0040BA346002DA8F1010815
:1022D000DEED001A93ED002ADE440CBF4FEA810BBD
:1022E0004FF0040B5B441FFA88FBBBF1000F01EEBB
:1022F000821AE5D120EE811AD6ED001A00EE211ADD
:1023000087ED001A3F1D521E92B22B000EBF8B1A92
:10231000AAEB02034B43002A4E440CEB8303C0D1CB
:10232000BDF82270099B0B9ABDF828E0DDF83C80CF
:10233000CDF834C0DF19ADF8227000B1042402EBEF
:10234000040CBDF820400C9A671E06EB8206ADF81F
:102350002070BDF82020002A92D111B0BDE8F08F86
:102360000BFB06F6002EF8DD16F0030003D0401E2E
:1023700044F8043BFBD1B108EFD023606360A36055
:10238000E3601034491EF8D111B0BDE8F08F0000B1
:102390002DE9F04F8BB044692288002A1ABF60688B
:1023A000031D04231968002914BF086800200029B0
:1023B00014BFD1F804B04FF0000B022AA6BF616829
:1023C000103104210968002914BF0B680023BBF1F8
:1023D000000F08D1022AC6BF61681C3104210968B8
:1023E00009B1D1F800B0DD68C468DBF80C906E6804
:1023F000D4F800E0D9F80020D5F800A0A168D9F8F9
:102400000880D5F808C0EF68069701FB0EF59B69B8
:10241000E7689B684F430EFB07F70A97D9F80C4013
:1024200008FB04F45443002E099408FB02F874D00E
:102430000024A1460296069E002E64D0069F0197B6
:10244000CDF80CC000260595039D002D51D00095B8
:10245000CDF810A007924FF0000A049A002A3FD04E
:102460004FF0000C089008988569A868DBF8187090
:102470002044304400EB0C05B8684844504400EB5D
:102480000C079FED280A19B3C80709D5D5ED000A36
:1024900097ED001A00EE810A05EB8E0507EB880721
:1024A000480815D0D5ED000A97ED001A05EB8E050A
:1024B00007EB880700EE810AD5ED000A97ED001AB8
:1024C000401E00EE810A05EB8E0507EB8807E9D177
:1024D00083ED000A1B1D521E0CF1040CC3D1089899
:1024E000009D079A6D1E0AEB820A0095B5D1DDF8B2
:1024F00010A0019F059D7F1E06EB85060197A3D1C5
:10250000DDF80CC0059D099E0A9F09EB8609029E15
:10251000761E04EB870402968DD10BB0BDE8F08FD8
:102520003B1300080000000070B401464FF00102A8
:102530000B681B0A1ED04C6804EB830118460D1F64
:1025400010F0030100F0068055F804695B1E724329
:10255000491EF9D180080DD004EB83011039CB68F6
:102560008C684D6851F8106963436B4373435A4359
:10257000401EF4D170BC10467047000070B58C68E6
:10258000806804EB82010D1F00EB82010E1FA54243
:10259000C0F00A8095ED000A2AF05EFA86ED000A86
:1025A0002D1F361FA542F5D270BD0000F0B581B0D9
:1025B0004269118800291ABF5068001D04204FF09D
:1025C00001050068002814BF036800230229A6BF84
:1025D0005068103004200068002819BF006800F11E
:1025E0001804002101F1180403F108010A68120A15
:1025F0001ED04E6806EB820110460F1F10F003013B
:1026000006D0521E57F804C9491E0CFB05F5F8D137
:1026100080080DD006EB82011039CA688E684F68B9
:10262000724351F810697A4372435543401EF4D106
:1026300098698668216806EB8500071F886800EBAB
:102640008502141FB74209D397ED000A2AF004FA55
:1026500084ED000A3F1F241FB742F5D201B0F0BD40
:1026600070B58C68806804EB82010D1F00EB82015D
:102670000E1FA542C0F00A8095ED000A2AF018FA54
:1026800086ED000A2D1F361FA542F5D270BD000051
:10269000F0B581B04269118800291ABF5068001D49
:1026A00004204FF001050068002814BF03680023D0
:1026B0000229A6BF5068103004200068002819BF06
:1026C000006800F11804002101F1180403F1080169
:1026D0000A68120A1ED04E6806EB820110460F1FD0
:1026E00010F0030106D0521E57F804C9491E0CFB16
:1026F00005F5F8D180080DD006EB82011039CA68C3
:102700008E684F68724351F810697A43724355439B
:10271000401EF4D198698668216806EB8500071F82
:10272000886800EB8502141FB74209D397ED000AB1
:102730002AF0BEF984ED000A3F1F241FB742F5D2EC
:1027400001B0F0BD70B58C68806804EB82010D1F8C
:1027500000EB82010E1FA542C0F00A8095ED000A31
:102760002AF0C6F986ED000A2D1F361FA542F5D2C4
:1027700070BD0000F0B581B04269118800291ABF10
:102780005068001D04204FF001050068002814BFA8
:10279000036800230229A6BF506810300420006897
:1027A000002819BF006800F11804002101F1180485
:1027B00003F108010A68120A1ED04E6806EB820176
:1027C00010460F1F10F0030106D0521E57F804C91F
:1027D000491E0CFB05F5F8D180080DD006EB8201EF
:1027E0001039CA688E684F68724351F810697A438D
:1027F00072435543401EF4D198698668216806EB00
:102800008500071F886800EB8502141FB74209D3B3
:1028100097ED000A2AF06CF984ED000A3F1F241F8F
:10282000B742F5D201B0F0BD70B58C68806804EB9A
:1028300082010D1F00EB82010E1FA542C0F00A802D
:1028400095ED000A29F0A0FA86ED000A2D1F361F2B
:10285000A542F5D270BD0000F0B581B04269118883
:1028600000291ABF5068001D04204FF001050068C0
:10287000002814BF036800230229A6BF5068103047
:1028800004200068002819BF006800F11804002126
:1028900001F1180403F108010A68120A1ED04E68FB
:1028A00006EB820110460F1F10F0030106D0521EE6
:1028B00057F804C9491E0CFB05F5F8D180080DD066
:1028C00006EB82011039CA688E684F68724351F86E
:1028D00010697A4372435543401EF4D19869866863
:1028E000216806EB8500071F886800EB8502141F2E
:1028F000B74209D397ED000A29F046FA84ED000AA1
:102900003F1F241FB742F5D201B0F0BD70B58C68EF
:10291000806804EB82010D1F00EB82010E1FA542AF
:10292000C0F00A8095ED000A29F096FA86ED000ABB
:102930002D1F361FA542F5D270BD0000F0B581B045
:102940004269118800291ABF5068001D04204FF009
:1029500001050068002814BF036800230229A6BFF0
:102960005068103004200068002819BF006800F18A
:102970001804002101F1180403F108010A68120A81
:102980001ED04E6806EB820110460F1F10F00301A7
:1029900006D0521E57F804C9491E0CFB05F5F8D1A4
:1029A00080080DD006EB82011039CA688E684F6826
:1029B000724351F810697A4372435543401EF4D173
:1029C00098698668216806EB8500071F886800EB18
:1029D0008502141FB74209D397ED000A29F03CFA8B
:1029E00084ED000A3F1F241FB742F5D201B0F0BDAD
:1029F00070B58C68806804EB82010D1F00EB8201CA
:102A00000E1FA542C0F00A8095ED000A2AF09CF83E
:102A100086ED000A2D1F361FA542F5D270BD0000BD
:102A2000F0B581B04269118800291ABF5068001DB5
:102A300004204FF001050068002814BF036800233C
:102A40000229A6BF5068103004200068002819BF72
:102A5000006800F11804002101F1180403F10801D5
:102A60000A68120A1ED04E6806EB820110460F1F3C
:102A700010F0030106D0521E57F804C9491E0CFB82
:102A800005F5F8D180080DD006EB82011039CA682F
:102A90008E684F68724351F810697A437243554308
:102AA000401EF4D198698668216806EB8500071FEF
:102AB000886800EB8502141FB74209D397ED000A1E
:102AC0002AF042F884ED000A3F1F241FB742F5D2D6
:102AD00001B0F0BD70B58C68806804EB82010D1FF9
:102AE00000EB82010E1FA542C0F00A8095ED000A9E
:102AF00029F0C8FA86ED000A2D1F361FA542F5D22F
:102B000070BD0000F0B581B04269118800291ABF7C
:102B10005068001D04204FF001050068002814BF14
:102B2000036800230229A6BF506810300420006803
:102B3000002819BF006800F11804002101F11804F1
:102B400003F108010A68120A1ED04E6806EB8201E2
:102B500010460F1F10F0030106D0521E57F804C98B
:102B6000491E0CFB05F5F8D180080DD006EB82015B
:102B70001039CA688E684F68724351F810697A43F9
:102B800072435543401EF4D198698668216806EB6C
:102B90008500071F886800EB8502141FB74209D320
:102BA00097ED000A29F06EFA84ED000A3F1F241FFA
:102BB000B742F5D201B0F0BD70B58C68806804EB07
:102BC00082010D1F00EB82010E1FA542C0F00A809A
:102BD00095ED000A29F0E8FF86ED000A2D1F361F4B
:102BE000A542F5D270BD0000F0B581B042691188F0
:102BF00000291ABF5068001D04204FF0010500682D
:102C0000002814BF036800230229A6BF50681030B3
:102C100004200068002819BF006800F11804002192
:102C200001F1180403F108010A68120A1ED04E6867
:102C300006EB820110460F1F10F0030106D0521E52
:102C400057F804C9491E0CFB05F5F8D180080DD0D2
:102C500006EB82011039CA688E684F68724351F8DA
:102C600010697A4372435543401EF4D198698668CF
:102C7000216806EB8500071F886800EB8502141F9A
:102C8000B74209D397ED000A29F08EFF84ED000AC0
:102C90003F1F241FB742F5D201B0F0BD70B58C685C
:102CA000806804EB82010D1F00EB82010E1FA5421C
:102CB000C0F00A8095ED000A29F028FA86ED000A96
:102CC0002D1F361FA542F5D270BD0000F0B581B0B2
:102CD0004269118800291ABF5068001D04204FF076
:102CE00001050068002814BF036800230229A6BF5D
:102CF0005068103004200068002819BF006800F1F7
:102D00001804002101F1180403F108010A68120AED
:102D10001ED04E6806EB820110460F1F10F0030113
:102D200006D0521E57F804C9491E0CFB05F5F8D110
:102D300080080DD006EB82011039CA688E684F6892
:102D4000724351F810697A4372435543401EF4D1DF
:102D500098698668216806EB8500071F886800EB84
:102D60008502141FB74209D397ED000A29F0CEF966
:102D700084ED000A3F1F241FB742F5D201B0F0BD19
:102D800070B58C68806804EB82010D1F00EB820136
:102D90000E1FA542C0F00A8095ED000A29F082FFBF
:102DA00086ED000A2D1F361FA542F5D270BD00002A
:102DB000F0B581B04269118800291ABF5068001D22
:102DC00004204FF001050068002814BF03680023A9
:102DD0000229A6BF5068103004200068002819BFDF
:102DE000006800F11804002101F1180403F1080142
:102DF0000A68120A1ED04E6806EB820110460F1FA9
:102E000010F0030106D0521E57F804C9491E0CFBEE
:102E100005F5F8D180080DD006EB82011039CA689B
:102E20008E684F68724351F810697A437243554374
:102E3000401EF4D198698668216806EB8500071F5B
:102E4000886800EB8502141FB74209D397ED000A8A
:102E500029F028FF84ED000A3F1F241FB742F5D256
:102E600001B0F0BD70B50C468068A16801EB82032B
:102E700000EB82021D1F161F8D420ED395ED000A36
:102E800002F02CFAF7EE000AC0EE800AC6ED000A46
:102E90002D1FA068361F8542F0D270BDF0B581B0FD
:102EA0004269118800291ABF5068001D04204FF0A4
:102EB00001050068002814BF036800230229A6BF8B
:102EC0005068103004200068002819BF006800F125
:102ED0001804002101F1180403F108010A68120A1C
:102EE0001ED04E6806EB820110460F1F10F0030142
:102EF00006D0521E57F804C9491E0CFB05F5F8D13F
:102F000080080DD006EB82011039CA688E684F68C0
:102F1000724351F810697A4372435543401EF4D10D
:102F20009E69B068226800EB85010F1F916801EB74
:102F300085031C1F87420ED397ED000A02F0CEF9DD
:102F4000F7EE000AC0EE800AC4ED000A3F1FB06829
:102F5000241F8742F0D201B0F0BD000070B58C682C
:102F6000806804EB82010D1F00EB82010E1FA54259
:102F7000C0F00A8095ED000A29F00EFC86ED000AEB
:102F80002D1F361FA542F5D270BD0000F0B581B0EF
:102F90004269118800291ABF5068001D04204FF0B3
:102FA00001050068002814BF036800230229A6BF9A
:102FB0005068103004200068002819BF006800F134
:102FC0001804002101F1180403F108010A68120A2B
:102FD0001ED04E6806EB820110460F1F10F0030151
:102FE00006D0521E57F804C9491E0CFB05F5F8D14E
:102FF00080080DD006EB82011039CA688E684F68D0
:10300000724351F810697A4372435543401EF4D11C
:1030100098698668216806EB8500071F886800EBC1
:103020008502141FB74209D397ED000A29F0B4FBBB
:1030300084ED000A3F1F241FB742F5D201B0F0BD56
:1030400070B58C68806804EB82010D1F00EB820173
:103050000E1FA542C0F00A8095ED000A29F0A8FED7
:1030600086ED000A2D1F361FA542F5D270BD000067
:10307000F0B581B04269118800291ABF5068001D5F
:1030800004204FF001050068002814BF03680023E6
:103090000229A6BF5068103004200068002819BF1C
:1030A000006800F11804002101F1180403F108017F
:1030B0000A68120A1ED04E6806EB820110460F1FE6
:1030C00010F0030106D0521E57F804C9491E0CFB2C
:1030D00005F5F8D180080DD006EB82011039CA68D9
:1030E0008E684F68724351F810697A4372435543B2
:1030F000401EF4D198698668216806EB8500071F99
:10310000886800EB8502141FB74209D397ED000AC7
:1031100029F04EFE84ED000A3F1F241FB742F5D26E
:1031200001B0F0BD70B58C68806804EB82010D1FA2
:1031300000EB82010E1FA542C0F00A8095ED000A47
:1031400029F070FB86ED000A2D1F361FA542F5D22F
:1031500070BD0000F0B581B04269118800291ABF26
:103160005068001D04204FF001050068002814BFBE
:10317000036800230229A6BF5068103004200068AD
:10318000002819BF006800F11804002101F118049B
:1031900003F108010A68120A1ED04E6806EB82018C
:1031A00010460F1F10F0030106D0521E57F804C935
:1031B000491E0CFB05F5F8D180080DD006EB820105
:1031C0001039CA688E684F68724351F810697A43A3
:1031D00072435543401EF4D198698668216806EB16
:1031E0008500071F886800EB8502141FB74209D3CA
:1031F00097ED000A29F016FB84ED000A3F1F241FFB
:10320000B742F5D201B0F0BD8968806801EB820356
:1032100000EB82021B1F101F8B4207D353F804C917
:103220002CF000428B4240F80429F7D2704700008E
:10323000F0B44269118800291ABF5068001D0420AB
:103240004FF001050068002814BF0368002302291D
:10325000A6BF5068103004200068002819BF00681D
:1032600000F11804002101F1180403F108010A68B3
:10327000120A1ED04E6806EB820110460F1F10F096
:10328000030106D0521E57F804C9491E0CFB05F570
:10329000F8D180080DD006EB82011039CA688E681B
:1032A0004F68724351F810697A4372435543401E88
:1032B000F4D1986922688068936800EB850103EB7C
:1032C0008504091F221F8142C0F0088051F804398B
:1032D00023F00043814242F80439F7D2F0BC704732
:1032E00070B58C68806804EB82010D1F00EB8201D1
:1032F0000E1FA542C0F00A8095ED000A28F080FE5E
:1033000086ED000A2D1F361FA542F5D270BD0000C4
:10331000F0B581B04269118800291ABF5068001DBC
:1033200004204FF001050068002814BF0368002343
:103330000229A6BF5068103004200068002819BF79
:10334000006800F11804002101F1180403F10801DC
:103350000A68120A1ED04E6806EB820110460F1F43
:1033600010F0030106D0521E57F804C9491E0CFB89
:1033700005F5F8D180080DD006EB82011039CA6836
:103380008E684F68724351F810697A43724355430F
:10339000401EF4D198698668216806EB8500071FF6
:1033A000886800EB8502141FB74209D397ED000A25
:1033B00028F026FE84ED000A3F1F241FB742F5D2F5
:1033C00001B0F0BD70B58C68806804EB82010D1F00
:1033D00000EB82010E1FA542C0F00A8095ED000AA5
:1033E00029F076F886ED000A2D1F361FA542F5D28A
:1033F00070BD0000F0B581B04269118800291ABF84
:103400005068001D04204FF001050068002814BF1B
:10341000036800230229A6BF50681030042000680A
:10342000002819BF006800F11804002101F11804F8
:1034300003F108010A68120A1ED04E6806EB8201E9
:1034400010460F1F10F0030106D0521E57F804C992
:10345000491E0CFB05F5F8D180080DD006EB820162
:103460001039CA688E684F68724351F810697A4300
:1034700072435543401EF4D198698668216806EB73
:103480008500071F886800EB8502141FB74209D327
:1034900097ED000A29F01CF884ED000A3F1F241F55
:1034A000B742F5D201B0F0BD70B58C68806804EB0E
:1034B00082010D1F00EB82010E1FA542C0F00A80A1
:1034C00095ED000A29F044F986ED000A2D1F361FFC
:1034D000A542F5D270BD0000F0B581B042691188F7
:1034E00000291ABF5068001D04204FF00105006834
:1034F000002814BF036800230229A6BF50681030BB
:1035000004200068002819BF006800F11804002199
:1035100001F1180403F108010A68120A1ED04E686E
:1035200006EB820110460F1F10F0030106D0521E59
:1035300057F804C9491E0CFB05F5F8D180080DD0D9
:1035400006EB82011039CA688E684F68724351F8E1
:1035500010697A4372435543401EF4D198698668D6
:10356000216806EB8500071F886800EB8502141FA1
:10357000B74209D397ED000A29F0EAF884ED000A72
:103580003F1F241FB742F5D201B0F0BD89688068A3
:1035900001EB820300EB82021B1F121F8B422BD315
:1035A000BFEE000AD3ED000A181F60EE800A8842C1
:1035B000C2ED000A20D390ED001A131F001F21EE68
:1035C000001A884283ED001A16D3D0ED000AA2F14A
:1035D0000803001F60EE800A8842C3ED000A0BD387
:1035E00090ED001AA2F10C0361EE000AC3ED000A8F
:1035F000031F103A8B42D5D270470000F0B44269E5
:10360000118800291ABF5068001D04204FF00105E1
:103610000068002814BF036800230229A6BF506871
:10362000103004200068002819BF006800F1180459
:10363000002101F1180403F108010A68120A1ED0E2
:103640004E6806EB820110460F1F10F0030106D0F2
:10365000521E57F804C9491E0CFB05F5F8D1800825
:103660000DD006EB82011039CA688E684F6872432C
:1036700051F810697A4372435543401EF4D198695A
:1036800022688068936800EB850103EB8504091FBD
:10369000221F8142C0F02C80BFEE000AD1ED000A4B
:1036A000091F60EE800A8142C2ED000A20D391ED2D
:1036B000001A131F091F21EE001A814283ED001A20
:1036C00016D3D1ED000AA2F10803091F60EE800AAB
:1036D0008142C3ED000A0BD391ED001AA2F10C0355
:1036E000091F103A61EE000A8142C3ED000AD5D2EB
:1036F000F0BC70478968806801EB820300EB8202AE
:103700001B1F121F8B4231D393ED000AF7EE000A04
:10371000181F80EE800A884282ED000A26D3D0ED81
:10372000000AB7EE000A131F001F80EE200A88422D
:1037300083ED000A1AD390ED000AF7EE000AA2F119
:103740000803001F80EE800A884283ED000A0DD333
:10375000D0ED000AB7EE000AA2F10C0380EE200AB9
:1037600083ED000A031F103A8B42CDD27047000050
:10377000F0B44269118800291ABF5068001D042066
:103780004FF001050068002814BF036800230229D8
:10379000A6BF5068103004200068002819BF0068D8
:1037A00000F11804002101F1180403F108010A686E
:1037B000120A1ED04E6806EB820110460F1F10F051
:1037C000030106D0521E57F804C9491E0CFB05F52B
:1037D000F8D180080DD006EB82011039CA688E68D6
:1037E0004F68724351F810697A4372435543401E43
:1037F000F4D1986922688068936800EB850103EB37
:103800008504091F221F8142C0F0328091ED000A19
:10381000F7EE000A091F80EE800A814282ED000A5D
:1038200026D3D1ED000AB7EE000A131F091F80EE60
:10383000200A814283ED000A1AD391ED000AF7EEC7
:10384000000AA2F10803091F80EE800A814283ED7D
:10385000000A0DD3D1ED000AB7EE000AA2F10C0365
:10386000091F103A80EE200A814283ED000ACDD272
:10387000F0BC704770B58C68806804EB82010D1F46
:1038800000EB82010E1FA542C0F00A8095ED000AF0
:1038900029F0B2F986ED000A2D1F361FA542F5D298
:1038A00070BD0000F0B581B04269118800291ABFCF
:1038B0005068001D04204FF001050068002814BF67
:1038C000036800230229A6BF506810300420006856
:1038D000002819BF006800F11804002101F1180444
:1038E00003F108010A68120A1ED04E6806EB820135
:1038F00010460F1F10F0030106D0521E57F804C9DE
:10390000491E0CFB05F5F8D180080DD006EB8201AD
:103910001039CA688E684F68724351F810697A434B
:1039200072435543401EF4D198698668216806EBBE
:103930008500071F886800EB8502141FB74209D372
:1039400097ED000A29F058F984ED000A3F1F241F63
:10395000B742F5D201B0F0BD70B58C68806804EB59
:1039600082010D1F00EB82010E1FA542C0F01480E2
:1039700095ED000AB1EE400A29F03EF9F7EE000A93
:1039800070EE200AB7EE000A80EE200A86ED000AEB
:103990002D1F361FA542EBD270BD0000F0B581B0DF
:1039A0004269118800291ABF5068001D04204FF099
:1039B00001050068002814BF036800230229A6BF80
:1039C0005068103004200068002819BF006800F11A
:1039D0001804002101F1180403F108010A68120A11
:1039E0001ED04E6806EB820110460F1F10F0030137
:1039F00006D0521E57F804C9491E0CFB05F5F8D134
:103A000080080DD006EB82011039CA688E684F68B5
:103A1000724351F810697A4372435543401EF4D102
:103A200098698668216806EB8500071F886800EBA7
:103A30008502141FB74213D397ED000AB1EE400A76
:103A400029F0DAF8F7EE000A70EE200AB7EE000A65
:103A500080EE200A84ED000A3F1F241FB742EBD2FC
:103A600001B0F0BD8968806801EB820300EB82023F
:103A70001B1F101F8B4214D34FF0FF3293ED000A2F
:103A8000B5EE400AF1EE10FACCBF9FED390A00EE18
:103A9000102AB8EEC00A80ED000A1B1F001F8B42DF
:103AA000ECD27047F0B44269118800291ABF5068FF
:103AB000001D04204FF001050068002814BF0368B2
:103AC00000230129C6BF5068103004200068002878
:103AD00019BF006800F11804002101F1180403F176
:103AE00008010A68120A1ED04E6806EB82011046D1
:103AF0000F1F10F0030106D0521E57F804C9491ECB
:103B00000CFB05F5F8D180080DD006EB82011039C9
:103B1000CA688E684F68724351F810697A437243DD
:103B20005543401EF4D1986922688068936800EB81
:103B3000850103EB8504091F221F8142C0F0158017
:103B40004FF0FF3391ED000AB5EE400AF1EE10FAA6
:103B5000CCBF9FED070A00EE103AB8EEC00A82ED26
:103B6000000A091F121F8142ECD2F0BC704700000E
:103B70000100000070B50C468068A16801EB82036B
:103B800000EB82021D1F161F8D420AD395ED000A1D
:103B900001F0A4FB86ED000A2D1FA068361F8542A8
:103BA000F4D270BDF0B581B04269118800291ABF06
:103BB0005068001D04204FF001050068002814BF64
:103BC000036800230229A6BF506810300420006853
:103BD000002819BF006800F11804002101F1180441
:103BE00003F108010A68120A1ED04E6806EB820132
:103BF00010460F1F10F0030106D0521E57F804C9DB
:103C0000491E0CFB05F5F8D180080DD006EB8201AA
:103C10001039CA688E684F68724351F810697A4348
:103C200072435543401EF4D19E69B068226800EB90
:103C300085010F1F916801EB85031C1F87420AD382
:103C400097ED000A01F04AFB84ED000A3F1FB068BF
:103C5000241F8742F4D201B0F0BD000070B58C681B
:103C6000806804EB82010D1F00EB82010E1FA5424C
:103C7000C0F0108095ED000A28F0BEFFF7EE000AB4
:103C800030EE200A29F00EF886ED000A2D1F361FAF
:103C9000A542EFD270BD0000F0B581B04269118835
:103CA00000291ABF5068001D04204FF0010500686C
:103CB000002814BF036800230229A6BF50681030F3
:103CC00004200068002819BF006800F118040021D2
:103CD00001F1180403F108010A68120A1ED04E68A7
:103CE00006EB820110460F1F10F0030106D0521E92
:103CF00057F804C9491E0CFB05F5F8D180080DD012
:103D000006EB82011039CA688E684F68724351F819
:103D100010697A4372435543401EF4D1986986680E
:103D2000216806EB8500071F886800EB8502141FD9
:103D3000B7420FD397ED000A28F05EFFF7EE000AB6
:103D400030EE200A28F0AEFF84ED000A3F1F241F4A
:103D5000B742EFD201B0F0BD8968806801EB820301
:103D600000EB82021B1F101F8B420FD393ED000A42
:103D7000F0EEC00AB7EE001A70EE810A80EE200A5B
:103D800080ED000A1B1F001F8B42EFD2704700001E
:103D9000F0B44269118800291ABF5068001D042040
:103DA0004FF001050068002814BF036800230229B2
:103DB000A6BF5068103004200068002819BF0068B2
:103DC00000F11804002101F1180403F108010A6848
:103DD000120A1ED04E6806EB820110460F1F10F02B
:103DE000030106D0521E57F804C9491E0CFB05F505
:103DF000F8D180080DD006EB82011039CA688E68B0
:103E00004F68724351F810697A4372435543401E1C
:103E1000F4D1986922688068936800EB850103EB10
:103E20008504091F221F8142C0F0108091ED000A15
:103E3000F0EEC00AB7EE001A70EE810A80EE200A9A
:103E400082ED000A091F121F8142EFD2F0BC7047B9
:103E500070B58C68806804EB82010D1F00EB820155
:103E60000E1FA542C0F00A8095ED000A28F006FD5D
:103E700086ED000A2D1F361FA542F5D270BD000049
:103E8000F0B581B04269118800291ABF5068001D41
:103E900004204FF001050068002814BF03680023C8
:103EA0000229A6BF5068103004200068002819BFFE
:103EB000006800F11804002101F1180403F1080161
:103EC0000A68120A1ED04E6806EB820110460F1FC8
:103ED00010F0030106D0521E57F804C9491E0CFB0E
:103EE00005F5F8D180080DD006EB82011039CA68BB
:103EF0008E684F68724351F810697A437243554394
:103F0000401EF4D198698668216806EB8500071F7A
:103F1000886800EB8502141FB74209D397ED000AA9
:103F200028F0ACFC84ED000A3F1F241FB742F5D2F5
:103F300001B0F0BD8968806801EB820300EB82026A
:103F40001B1F101F8B420ED393ED000AB5EE400AE3
:103F5000F1EE10FA48BF9FED7B0A80ED000A1B1FAF
:103F6000001F8B42F0D270472DE9F0412DED028BFE
:103F70008F68866897ED008A1446022CDFED718AFF
:103F80003DD3611E3A1D11F003000CD092ED000AE2
:103F9000B4EE480AF1EE10FA58BFB0EE408A401E67
:103FA00002F10402F2D1890800F02B8092ED000AA0
:103FB000B4EE480AF1EE10FA58BFB0EE408A92ED26
:103FC000010AB4EE480AF1EE10FA58BFB0EE408A8A
:103FD00092ED020AB4EE480AF1EE10FA58BFB0EEC4
:103FE000408A92ED030AB4EE480AF1EE10FA58BF87
:103FF000B0EE408A491E02F11002D7D101E0002C38
:1040000040D0B0464FEA040597ED000A30EE480A6A
:1040100028F0F2FD3F1D88ED000A6D1E78EE808AC3
:1040200008F10408F0D1B7EE000A14F0030080EEA6
:10403000280A09D0D6ED000A60EE800AC6ED000A13
:10404000401E06F10406F5D1A4081BD0D6ED000AE7
:1040500060EE800AC6ED000A641E96ED011AD6EDE8
:10406000020A21EE001A86ED011A60EE800A96ED32
:10407000031AC6ED020A21EE001A86ED031A06F1B4
:104080001006E3D1BDEC028BBDE8F0812DE9F047CD
:104090000D460446089FA868099EBF007F4200EBBA
:1040A0008201A06801EB070AB600764200EB8201AC
:1040B000EA68924501EB06090FD39846C5F808A0B7
:1040C000C4F808900023424629462046FFF74CFFDB
:1040D000E868BA448245B144F0D2E968A960E06872
:1040E000A060BDE8F08700008968806801EB82036A
:1040F00000EB82021B1F101F8B4221D3B7EE000A78
:10410000DFEDB80AD3ED001A9FEDB72AB6EE001A1C
:1041100001EE821AB4EE601AF1EE10FA08DAB5EE8A
:10412000401AF1EE10FA05D59FED061A02E000BF25
:10413000B0EE401A80ED001A1B1F001F8B42E1D227
:1041400070470000000000008968806893ED000A55
:10415000D3ED010A01EB820300EB82021B1F101F4B
:104160008B4215D393ED001AB4EE410AF1EE10FA2A
:1041700058BFB0EE401AB4EE601AF1EE10FA58BF14
:10418000B0EE601A80ED001A1B1F001F8B42E9D2AF
:10419000704700002DE9F04152685568D4688E6878
:1041A000D0F808806C43A10040462CF06CFD002242
:1041B000002C3346B7EE000A00F05B8002F1010CE0
:1041C00005EB020EF445D3ED000A49D2691E11F049
:1041D000030006EB8C070FD097ED001AF4EE410AAE
:1041E000F1EE10FA44BFF0EE410A6246401E0CF1B7
:1041F000010C07F10407EFD1890831D097ED001ABF
:10420000F4EE410AF1EE10FA44BFF0EE410A6246C4
:1042100097ED011AF4EE410A0CF10100F1EE10FAEB
:1042200044BFF0EE410A024697ED021A401CF4EE3C
:10423000410AF1EE10FA44BFF0EE410A024697ED52
:10424000031A401CF4EE410AF1EE10FA44BFF0EEFE
:10425000410A0246491E00F1010C07F11007CDD1B9
:1042600008EB82007246A24280ED000A03EB850350
:10427000A4D3BDE8F0810000806893ED000AD3ED7F
:10428000010A93ED021A8968031F03EB8200B5EE61
:10429000401A0B1FF1EE10FA03EB82022AD5F5EE5D
:1042A000400AF1EE10FA13D08A4210D392ED001AB0
:1042B000B4EE401AF1EE10FA44BF31EE401A21EE8E
:1042C000201A80ED001A121F001F8A42EED270479A
:1042D0008A42FCD3D2ED000AF4EE400AF1EE10FA65
:1042E00048BFDFEDA70AC0ED000A121F001F8A4277
:1042F000F0D270478A42EAD3D2ED001AF4EE411AA6
:10430000F1EE10FA0AD5F4EE401AF1EE10FA07D5E4
:1043100071EEC01A61EEA01A02E000BFF0EE411A81
:10432000C0ED001A121F001F8A42E5D2704700003C
:104330008968806893ED000A01EB820300EB82023A
:104340001B1F101F8B420ED3D3ED000AF4EE400A60
:10435000F1EE10FA48BFDFED8A0AC0ED000A1B1F1C
:10436000001F8B42F0D2704770B52DED048B8C6826
:10437000806893ED008A04EB82010D1F00EB82013F
:104380000E1FA542C0F02A80D5ED008AF5EE408AC6
:10439000F1EE10FA4CBF9FED7A9AB0EE689AB0EE4B
:1043A000680A28F029FCFFEE000A30EE200A20EE11
:1043B000080AB5EE400AF1EE10FA09DCB0EE680A20
:1043C00028F01AFCFFEE000A30EE200A00EE089AF0
:1043D00086ED009A2D1F361FA542D5D2BDEC048B69
:1043E00070BD00000100803FCDCC4C3E70B52DED7E
:1043F000048B8C68806893ED008AD3ED018A04EB0E
:1044000082010D1F00EB82010E1FA542C0F02C801F
:1044100095ED009AB5EE409AF1EE10FA4CBFDFED43
:10442000589AF0EE499AB0EE490A28F0E5FBFFEE03
:10443000000A30EE200A20EE080AB5EE400AF1EE3E
:1044400010FA09DCB0EE490A28F0D6FBFFEE000AAC
:1044500030EE200A40EE089A28EEA90A86ED000AFE
:104460002D1F361FA542D3D2BDEC048B70BD0000BA
:104470008968806803EB820301EB820C00EB820207
:104480001B1FACF1040C101F8C4520D39CED000ABF
:10449000B5EE400AF1EE10FA4CBFDFED390AF0EE4E
:1044A000400A1A46B1EE400A131FB5EE400AF1EE7B
:1044B00010FA48BF9FED320A92ED001A41EE400A11
:1044C000C0ED000AACF1040C001F8C45DED2704731
:1044D00070B504466269118800291ABF5068001D32
:1044E00004200068002814BF056800250229A6BF23
:1044F0005068103004200068002819BF006800F1DF
:104500001806002101F11806A069F8B905F10800A4
:10451000FEF70AF8A969336889689C6801EB800294
:1045200004EB8000121F001F8A4228D392ED000A7C
:10453000B5EE400AF1EE10FA48BF9FED110A80ED8A
:10454000000A121F001F8A42F0D270BD4068012885
:1045500005F1080009D1FDF7E7FF0246A06983686D
:10456000A9693068BDE87040E2E6FDF7DDFFA169AA
:104570008B68A96902463068BDE870407CE670BD72
:1045800000000000F0B502464FF00106536919889B
:1045900000291ABF5868001D04200068002814BFB5
:1045A000046800240229A6BF58681030042000685F
:1045B000002819BF006800F11805002101F1180555
:1045C00004F108010B681B0A1FD04F6807EB830139
:1045D0001846A1F1040C10F0030106D05B1E5CF834
:1045E00004E9491E0EFB06F6F8D180080DD007EB52
:1045F00083011039CB688F687B434F687B4351F848
:1046000010797B435E43401EF4D190698168A069B4
:104610002A688068936891ED000A00EB860103EB3D
:104620008604091F221F8142C0F00F80D1ED000ACD
:10463000F4EE400AF1EE10FA48BFDFEDC20AC2ED17
:10464000000A091F121F8142F0D2F0BD70B5044666
:104650006269118800291ABF5068001D0420006893
:10466000002814BF056800250229A6BF5068103035
:1046700004200068002819BF006800F11806002116
:1046800001F1180605F10800FDF74EFF0246A0698A
:104690008368A9693068BDE8704065E670B5044676
:1046A0006269118800291ABF5068001D0420006843
:1046B000002814BF056800250229A6BF50681030E5
:1046C00004200068002819BF006800F118060021C6
:1046D00001F1180605F10800FDF726FF0246A06962
:1046E0008368A9693068BDE870407FE62DE9F04F26
:1046F00083B04269108800281ABF5168091D04213F
:104700000968002919BF096801F11805002303F1A0
:1047100018050128C6BF5168103104210968002915
:1047200019BF096801F11806002303F118060228D1
:10473000C6BF50681C3004200068002814BF0468FD
:104740000024A06987682CB14168006800F086FCED
:10475000804601E04FF0010828684168006800F0D9
:104760007DFC0146286832688068D2F808900144D0
:1047700004F108038842009341D202970191074651
:1047800029688F604FF001023468C4F80890009BDC
:104790001868000A2AD0D3F804E00EEB80038446A0
:1047A000A3F1040A1CF0030306D0401E5AF804B912
:1047B0005B1E0BFB02F2F8D15FEA9C0C634615D03E
:1047C0000EEB8000B0F11000D0F80CC0D0F808E07B
:1047D000D0F804A050F810B90EFB0CFC0AFB0CFC3E
:1047E0000BFB0CFC5B1E0CFB02F2EDD1029B204686
:1047F000FFF73EFE019847448742C144C0D3286872
:10480000C16881603068C168816003B0BDE8F08F25
:1048100070B504466269118800291ABF5068001DEE
:1048200004200068002814BF056800250229A6BFDF
:104830005068103004200068002819BF006800F19B
:104840001806002101F1180605F10800FDF76CFEBD
:104850000246A0698368A9693068BDE8704073E4C6
:10486000F0B44269118800291ABF5068001D042065
:104870004FF001050068002814BF036800230229D7
:10488000A6BF5068103004200068002819BF0068D7
:1048900000F11804002101F1180403F108010A686D
:1048A000120A1ED04E6806EB820110460F1F10F050
:1048B000030106D0521E57F804C9491E0CFB05F52A
:1048C000F8D180080DD006EB82011039CA688E68D5
:1048D0004F68724351F810697A4372435543401E42
:1048E000F4D1986922688068936800EB850103EB36
:1048F0008504091F221F8142C0F02280B7EE000A02
:10490000DFED110AD1ED001A9FED102AB6EE001A64
:1049100001EE821AB4EE601AF1EE10FA08DAB5EE82
:10492000401AF1EE10FA05D59FED061A02E000BF1D
:10493000B0EE401A82ED001A091F121F8142E1D227
:10494000F0BC7047000000000100803FCDCC4C3E21
:10495000F0B583B04269118800291ABF5068001D64
:1049600004200068002814BF046800240229A6BFA0
:104970005068103004200068002814BF0568002526
:10498000E068E96846684F6804F10800FDF7CCFD6F
:10499000024601970096A169A8693346FFF776FBA6
:1049A00003B0F0BD30B443691A888069002A1ABF89
:1049B0005968091D04210968002914BF0C680024E6
:1049C000022AA6BF596810310421096883680029AA
:1049D00019BF096801F11805002202F11805A16943
:1049E000286804F1080230BCFFF7D4BB20F07E40F9
:1049F000B0F1400162D04FF48022891A00F0948017
:104A00004FF40072891A71D0891A63D0C91F00F05F
:104A10008E8040F2F932891A5FD00F3900F08A8017
:104A200040F2F172891A5BD01F3900F0868040F69F
:104A3000E172891A57D0DFF8D425891A00F08F80E7
:104A40004FF4C012891A00F08780DFF8C425891A54
:104A50005ED04FF40072891A57D0891A49D0C91F05
:104A600059D040F2F932891A46D00F3956D040F267
:104A7000F172891A43D01F3953D040F6E172891A76
:104A800040D0DFF88825891A63D04FF4C012891A04
:104A90005CD0DFF88025891A19D04FF40062891A9A
:104AA0000FD04FF48052891A0ED0DFF86C25891A86
:104AB00049D04FF4C012891A42D053E00FF274600B
:104AC00070470FF27C6070470FF2806070470FF202
:104AD000886070470FF28C6070470FF290607047EB
:104AE0000FF2906070470FF2946070470FF294607D
:104AF00070470FF2986070470FF2986070470FF29E
:104B00009C6070470FF29C6070470FF2A060704786
:104B10000FF2A06070470FF2A46070470FF2A4601C
:104B200070470FF2A86070470FF2A86070470FF24D
:104B3000AC6070470FF2AC6070470FF2B460704722
:104B40000FF2B86070470FF2C46070470FF2CC608C
:104B500070470FF2D86070470FF2E06070470FF2B5
:104B6000EC6070476FF30D0040F04000402809D022
:104B7000DFF8A81488420BD0DFF8A414884204D0D0
:104B80007AA070470FF2D46070470FF2E860704768
:104B90000FF2F460704720F07E40B0F1400168D021
:104BA0004FF48022891A64D04FF40072891A62D0BF
:104BB000891A5ED0C91F5CD040F2F932891A58D0E8
:104BC0000F3956D040F2F172891A54D01F3952D0A1
:104BD00040F6E172891A4ED0DFF83024891A4AD0A3
:104BE0004FF4C012891A46D0DFF82424891A40D025
:104BF0004FF40072891A3ED0891A3AD0C91F38D0B2
:104C000040F2F932891A34D00F3932D040F2F172C1
:104C1000891A30D01F392ED040F6E172891A2AD075
:104C2000DFF8E823891A26D04FF4C012891A22D05F
:104C3000DFF8E023891A1ED04FF40062891A18D0D9
:104C40004FF48052891A16D0DFF8CC23891A12D07B
:104C50004FF4C012891A0ED06FF30D0040F04000DF
:104C600040281FBFDFF8B4339842DFF8B4339842CE
:104C700001D1012070470020704720F07E40B0F144
:104C8000400169D04FF48022891A65D04FF4007238
:104C9000891A61D0891A5FD0C91F5DD040F2F932FC
:104CA000891A59D00F3957D040F2F172891A53D06E
:104CB0001F3951D040F6E172891A4DD0DFF84C23EC
:104CC000891A49D04FF4C012891A45D0DFF8402321
:104CD000891A41D04FF40072891A3DD0891A3BD00D
:104CE000C91F39D040F2F932891A35D00F3933D083
:104CF00040F2F172891A2FD01F392DD040F6E1729F
:104D0000891A29D0DFF80423891A25D04FF4C0125C
:104D1000891A21D0DFF8FC22891A1DD04FF40062D5
:104D2000891A19D04FF48052891A15D0DFF8E82279
:104D3000891A11D04FF4C012891A1EBF6FF30D00EB
:104D400040F04000402807D0DFF8D03298421CBF26
:104D5000DFF8CC32984201D1012070470020704723
:104D6000DFF8C01201601C20704700000000000046
:104D700020F07E40B0F1400122D04FF48022891A09
:104D800039D04FF48062891A20D0C91F36D040F242
:104D9000F932891A1DD00F3933D0A34A891A21D08C
:104DA0004FF48062891A17D0C91F1ED040F2F93221
:104DB000891A14D00F391BD09C4A891A03D023E0DA
:104DC0000FF2703070470FF2783070470FF2943066
:104DD00070470FF2983070470FF2B03070470FF203
:104DE000B43070470FF2CC3070470FF2D0307047BC
:104DF0000FF2D03070470FF2DC3070470FF2DC302A
:104E000070470FF2E0307047800B800340F04000A5
:104E1000402807D0814988420AD08149884204D07D
:104E200079A070470FF2744070470FF288407047C6
:104E30000FF29440704720F07E40B0F140012DD039
:104E40004FF48022891A29D04FF48062891A25D024
:104E5000C91F23D040F2F932891A1FD00F391DD053
:104E6000714A891A1AD04FF48062891A16D0C91F64
:104E700014D040F2F932891A10D00F390ED06B4A93
:104E8000891A1FBF800B800340F04000402805D0E6
:104E9000624B98421CBF624B984201D1012070477F
:104EA00000207047624901600C2070470146402095
:104EB000C1F34342022A04D15E48084040F48020F6
:104EC00037E021F07E42554BD21A2DD04FF480634B
:104ED000D21A1BD0D21F29D040F2F933D21A17D0E0
:104EE0000F3A25D0504BD21A18D04FF48063D21A03
:104EF00010D0D21F14D040F2F933D21A0CD00F3A8E
:104F000010D04A4BD21A14D14B4812E04B4810E053
:104F10004B480EE04B480CE04B480AE0404808E0A4
:104F20004A4806E04A4804E0184602E0494800E0E2
:104F300049484A004CBF4FF08042002210438A008B
:104F40004CBF4FF000520022104309014CBF4FF0FC
:104F50000061002108437047024622F07E4040383D
:104F600022D04FF48021401A30D04FF48061401A93
:104F70001ED0C01F2CD040F2F931401A1AD00F3881
:104F800028D02949401A1BD04FF48061401A13D011
:104F9000C01F17D040F2F931401A0FD00F3813D08C
:104FA0002249401A02D017E040201FE022481DE0AD
:104FB00022481BE0224819E0224817E0224815E069
:104FC000174813E0214811E021480FE013480DE095
:104FD00020480BE0204809E0C2F3C051C2F30D00A5
:104FE000002914BF40F4040040F48020510048BF61
:104FF00040F08040910048BF40F00050110148BF90
:1050000040F0006070470000000000000FE82B0037
:10501000F1F73B00F1FFB90000F04D004000040043
:1050200040008400C09F0308F1F77F00F107FE00F5
:1050300030A00308FF3F80004010820140040400BC
:1050400040080400400484004008840047048400B1
:105050004F088400470404004F08040009B90020E9
:105060007047C21102F07F02C0F382339B1859438C
:10507000C91DC9084315C90003F003034FEA604C7A
:10508000D9400CF00F0CBCF1040F0AD0BCF1080F92
:1050900002BFC0F38230821801EB0221C91DC8088B
:1050A0007047C0F38230821801EB0211C91DC80895
:1050B000704709B900207047C21102F07F02C0F3A7
:1050C00082339A185143C91DC9084015C90000F020
:1050D0000300C140C91DC808704709B900207047C6
:1050E0004214C90002F00F02042A02D0082A09D093
:1050F00010E0C31103F07F03C0F38232D218A1EB9A
:10510000021107E0C21102F07F02C0F382339A1845
:10511000A1EB0221421502F003029140C91DC21108
:10512000C90802F07F02C0F38230C9008018B1FBC9
:10513000F0F07047464D545F4E4F4E450000000062
:10514000464D545F464C4F4154000000464D545F5D
:10515000464C4F4154363400464D545F464C4F4107
:1051600054313600464D545F55380000464D545F6B
:1051700055313600464D545F55333200464D545F2D
:1051800055363400464D545F55340000464D545F4B
:1051900053380000464D545F53313600464D545F3E
:1051A00053333200464D545F53363400464D545FFE
:1051B00053340000464D545F51000000464D545F8B
:1051C00051370000464D545F51313500464D545F14
:1051D00051333100464D545F55510000464D545FE8
:1051E00055513700464D545F555131350000000090
:1051F000464D545F5551333100000000464D545F19
:105200004C5554345F464C4F41540000464D545F5A
:105210004C5554385F464C4F41540000464D545F46
:105220004C5554345F51313500000000464D545FF9
:105230004C5554385F51313500000000464D545FE5
:105240004C5554345F55513135000000464D545F84
:105250004C5554385F5551313500000041495F418C
:10526000525241595F464F524D41545F4E4F4E4549
:105270000000000041495F41525241595F464F5280
:105280004D41545F5100000041495F415252415924
:105290005F464F524D41545F5551000041495F42B6
:1052A00055464645525F464F524D41545F4E4F4E14
:1052B0004500000041495F4255464645525F464F12
:1052C000524D41545F51000041495F4255464645A9
:1052D000525F464F524D41545F555100F0EE400A27
:1052E000F5EE400AF1EE10FA9FED290A01DBB1EE6E
:1052F000E00A704727F080BC27F002BD27F0BEBA55
:1053000027F052BCB5EE400AF1EE10FA48BF9FED0F
:10531000200A7047B5EE400AF1EE10FA48BF20EEC1
:10532000200A704700B581B0B1EE400A27F064FC56
:10533000F7EE000A30EE200AB7EE001A81EE000AFE
:1053400001B000BDF0EE400A9FED121AB6EE000A61
:1053500000EE810ADFED100AB4EE600AF1EE10FAF9
:1053600007DAB5EE400AF1EE10FA04D59FED080A0F
:105370007047B7EE000A7047B5EE400AF1EE10FA3A
:10538000CCBF9FED060A9FED060AB8EEC00A704733
:1053900000000000CDCC4C3E0100803F0100000029
:1053A000FFFFFFFF80EE200A704780EE200A27F003
:1053B0008FB827F057BCF4EE400AF1EE10FA58BF50
:1053C000B0EE600A7047B4EE600AF1EE10FA58BF12
:1053D000B0EE600A704720EE200A704730EE600A97
:1053E000704730EE200A704770B4840746D04C1ED8
:1053F000002941D0D5B2034602E0611EE4B30C4659
:1054000003F8015B9907F8D1032C2ED9D5B245EAF0
:1054100005250F2C45EA054519D9264603F110014B
:10542000103E0F2E41F8105C41F80C5C41F8085C0E
:1054300041F8045C01F11001F2D8A4F1100121F04F
:105440000F0104F00F041031032C0B440DD91E463C
:1054500021460439032946F8045BFAD8211F21F0BC
:10546000030104310B4404F003042CB1D2B21C44F8
:1054700003F8012BA342FBD170BC70470C460346D6
:10548000C2E7000000000000000000000000000073
:1054900001F0FF01102A2BDB10F0070F08D010F8E5
:1054A000013B013A8B422DD010F0070F42B3F6D1E9
:1054B000F0B441EA012141EA014122F007047FF002
:1054C00000070023F0E80256083C85EA010586EA59
:1054D000010685FA47F5A3FA87F586FA47F6A5FA95
:1054E00087F68EB9EED1F0BC01F0FF0102F00702A1
:1054F00032B110F8013B013A83EA010313B1F8D14C
:105500000020704701387047002D06BF354603382C
:10551000073815F0010F07D1013015F4807F02BF65
:10552000013015F4C03F0130F0BC0138704700BFB6
:1055300010F8012B11F8013B012A28BF9A42F7D03D
:10554000D01A7047034613F8012B002AFBD1181A12
:105550000138704781F0004102E000BF83F0004352
:1055600030B54FEA41044FEA430594EA050F08BFFE
:1055700090EA020F1FBF54EA000C55EA020C7FEAC2
:10558000645C7FEA655C00F0E2804FEA5454D4EB3F
:105590005555B8BF6D420CDD2C4480EA020281EA09
:1055A000030382EA000083EA010180EA020281EA41
:1055B0000303362D88BF30BD11F0004F4FEA013193
:1055C0004FF4801C4CEA113102D0404261EB4101A2
:1055D00013F0004F4FEA03334CEA133302D0524228
:1055E00063EB430394EA050F00F0A780A4F10104E4
:1055F000D5F1200E0DDB02FA0EFC22FA05F280181E
:1056000041F1000103FA0EF2801843FA05F3594103
:105610000EE0A5F120050EF1200E012A03FA0EFC82
:1056200028BF4CF0020C43FA05F3C01851EBE371AC
:1056300001F0004507D54FF0000EDCF1000C7EEBC9
:1056400000006EEB0101B1F5801F1BD3B1F5001F07
:105650000CD349085FEA30004FEA3C0C04F1010426
:105660004FEA445212F5800F80F09A80BCF1004F4F
:1056700008BF5FEA500C50F1000041EB045141EAD1
:10568000050130BD5FEA4C0C404141EB0101013C9A
:1056900028BFB1F5801FE9D291F0000F04BF014689
:1056A0000020B1FA81F308BF2033A3F10B03B3F15B
:1056B00020020CDA0C3208DD02F1140CC2F10C02EB
:1056C00001FA0CF021FA02F10CE002F11402D8BF49
:1056D000C2F1200C01FA02F120FA0CFCDCBF41EA15
:1056E0000C019040E41AA2BF01EB0451294330BDE4
:1056F0006FEA04041F3C1CDA0C340EDC04F11404C1
:10570000C4F1200220FA04F001FA02F340EA030097
:1057100021FA04F345EA030130BDC4F10C04C4F1DD
:10572000200220FA02F001FA04F340EA03002946BD
:1057300030BD21FA04F0294630BD94F0000F83F407
:10574000801306BF81F480110134013D4EE77FEAEA
:10575000645C18BF7FEA655C29D094EA050F08BF36
:1057600090EA020F05D054EA000C04BF1946104617
:1057700030BD91EA030F1EBF0021002030BD5FEA5B
:10578000545C05D14000494128BF41F0004130BD83
:1057900014F580043CBF01F5801130BD01F00045D7
:1057A00045F0FE4141F470014FF0000030BD7FEA4A
:1057B000645C1ABF194610467FEA655C1CBF0B4645
:1057C000024650EA013406BF52EA033591EA030F5C
:1057D00041F4002130BD00BF90F0000F04BF002154
:1057E000704730B54FF4806404F132044FF0000587
:1057F0004FF0000150E700BF90F0000F04BF002100
:10580000704730B54FF4806404F1320410F0004565
:1058100048BF40424FF000013EE700BF42004FEA60
:10582000E2014FEA31014FEA02701FBF12F07F43DD
:1058300093F07F4F81F06051704732F07F4208BF94
:10584000704793F07F4F04BF41F40021704730B59B
:105850004FF4607401F0004521F000411CE700BFE7
:1058600050EA010208BF704730B54FF000050AE06A
:1058700050EA010208BF704730B511F0004502D56B
:10588000404261EB41014FF4806404F132045FEA6D
:10589000915C3FF4D8AE4FF003025FEADC0C18BF16
:1058A00003325FEADC0C18BF033202EBDC02C2F108
:1058B000200300FA03FC20FA02F001FA03FE40EA9A
:1058C0000E0021FA02F11444BDE600BF70B54FF09E
:1058D000FF0C4CF4E06C1CEA11541DBF1CEA13557C
:1058E00094EA0C0F95EA0C0F00F0DEF82C4481EAE4
:1058F000030621EA4C5123EA4C5350EA013518BF04
:1059000052EA033541F4801143F4801338D0A0FBF0
:1059100002CE4FF00005E1FB02E506F00042E0FB9D
:1059200003E54FF00006E1FB03569CF0000F18BFA3
:105930004EF0010EA4F1FF04B6F5007F64F540744B
:1059400004D25FEA4E0E6D4146EB060642EAC621DE
:1059500041EA55514FEAC52040EA5E504FEACE2E4B
:10596000B4F1FD0C88BFBCF5E06F1ED8BEF1004F4E
:1059700008BF5FEA500E50F1000041EB045170BDCA
:1059800006F0004646EA010140EA020081EA03010E
:10599000B4EB5C04C2BFD4EB0C0541EA045170BD0A
:1059A00041F480114FF0000E013C00F3AB8014F184
:1059B000360FDEBF002001F0004170BDC4F10004CD
:1059C000203C35DA0C341BDC04F11404C4F120054E
:1059D00000FA05F320FA04F001FA05F240EA0200A9
:1059E00001F0004221F0004110EBD37021FA04F6DF
:1059F00042EB06015EEA430E08BF20EAD37070BD99
:105A0000C4F10C04C4F1200500FA04F320FA05F0F7
:105A100001FA04F240EA020001F0004110EBD370F9
:105A200041F100015EEA430E08BF20EAD37070BD69
:105A3000C4F1200500FA05F24EEA020E20FA04F342
:105A400001FA05F243EA020321FA04F001F00041F1
:105A500021FA04F220EA020000EBD3705EEA430E62
:105A600008BF20EAD37070BD94F0000F0FD101F091
:105A70000046400041EB010111F4801F08BF013CCA
:105A8000F7D041EA060195F0000F18BF704703F008
:105A90000046520043EB030313F4801F08BF013D8F
:105AA000F7D043EA0603704794EA0C0F0CEA13554B
:105AB00018BF95EA0C0F0CD050EA410618BF52EA05
:105AC0004306D1D181EA030101F000414FF000000B
:105AD00070BD50EA410606BF1046194652EA430619
